:0300000002219743
:0C219700787FE4F6D8FD7581070221DE98
:0E2AA700C2BCC8EBD6B8CEC6D6D02E2E2E009E
:1020FB00121B6E122381122A6E7FF47E01122A1597
:10210B00122721122A44121C4C1222231228F47F6C
:10211B00F47E01805A1228F47FF47E01122A1512E4
:10212B0014DA9000A4EEF0A3EFF07FF47E01122AF4
:10213B00159000A4E07004A3E0640B700312132746
:10214B009000A4E07004A3E0640C70051203EC8013
:10215B00C49000A4E07004A3E0640D7017122ACFA2
:10216B007A2A7BA77D01E4FF1222AC7FE87E031263
:10217B002A1580A1122B177F647E00122A1590005E
:0C218B00A4E07004A3E0640F709580894C
:0A2AF100EF1F70011E144E70F72253
:102A1500AD07AC06ED1DAE0470011C4E60097F7D4F
:082A25007E00122AF180ED226F
:1019A300C7EBB0B4CAD6D6B82000CBD1CBF7B3C9F6
:1019B300B9A6002020C7EBCDA8D0D00049443A00F7
:1019C300C7EBCAE4C8EBD6B8CEC62000CEB4D5D296
:1019D300B5BDD6B8CEC6D0C5CFA22000C7EBCAE4EA
:1019E300C8EBC3DCC2EBA3BA00C9E8B1B8BCD3D41B
:1019F300D8D6D02E2E2E2E2E002A00C9E8B1B8BC80
:101A0300D3D4D8CAA7B0DC00C9E8B1B8BCD3D4D802
:101A1300B3C9B9A600BBB6D3ADCAB9D3C300D6B850
:101A2300CEC6CAB6B1F0CFB5CDB300CFB5CDB3B343
:101A3300F5CABCBBAFD6D0000100071300000000FD
:101A4300001BEF01FFFFFFFF010003010005010081
:101A5300031D00210100080401000003E700F80151
:101A6300000804010000001300210100040201002A
:101A73000801000402020009010003050009010036
:071A8300030D00110000003B
:10231A0042000100004100000049000301000606D6
:05232A0001000B001989
:10267600E4900083F0A3F0900083E0FEA3E0FFC3A4
:102686009406EE64809480502074452FF582741A67
:102696003EF583E493FF122ADB900084E004F07099
:0926A600D6900083E004F080CE20
:0126AF002208
:10257100E490007EF0A3F0122676E490007EF0A3B2
:10258100F090007EE0FEA3E0FFC3940AEE64809425
:10259100805020743B2FF582741A3EF583E493FF3B
:1025A100122ADB90007FE004F070D690007EE004F8
:0325B100F080CEE9
:0125B4002204
:05278300900082EFF060
:10278800E4A3F0900082E0FFA3E0C39F501A122A4E
:10279800E6900083E0240CF582E43400F583EFF042
:0827A800900083E004F080DBE7
:0127B0002206
:10280900122676E4900082F0900082E0FFC39406DD
:10281900748094805011EF901A4B93FF122ADB9029
:072829000082E004F080E1F1
:012830002285
:10283100122676E4900082F0900082E0FFC39407B4
:10284100748094805011EF901A6D93FF122ADB90DF
:072851000082E004F080E1C9
:01285800225D
:10249900E49000A8F09000A8E0FFC394067480942B
:1024A900805011EF901A4593FF122ADB9000A8E0A3
:1024B90004F080E1E49000A8F09000A8E0FFC39444
:1024C90007748094805011EF901A7493FF122ADBDD
:0824D9009000A8E004F080E18E
:0124E10022D8
:10285900122676E4900082F0900082E0FFC3940B88
:10286900748094805011EF901A5793FF122ADB90CD
:072879000082E004F080E1A1
:012880002235
:10288100122676E49000A9F09000A9E0FFC3940617
:10289100748094805011EF901A7B93FF122ADB9081
:0728A10000A9E004F080E152
:0128A800220D
:1024E200E49000AAF09000AAE0FFC39406748094DE
:1024F200805011EF901A4593FF122ADB9000AAE058
:1025020004F080E1E49000AAF09000AAE0FFC394F6
:1025120006748094805011EF901A8193FF122ADB87
:082522009000AAE004F080E142
:01252A00228E
:04204200AB07AA0638
:1020460090009A1212F600000000EA900008F0EBE9
:10205600A3F0E490009EF090009EE0C39407748085
:102066009480503990009AE0F8A3E0F9A3E0FAA32F
:10207600E0FBA3E02403F582E43400F583E0FFE40B
:10208600FCFDFEEB2FFFEE3AFEED39FDEC38FC9041
:10209600009A1212EA90009EE004F080BA90009A2C
:1020A600A3A3E0FEA3E4FFE4FDFC78081212D79098
:1020B600000AEFF090009AE0FCA3E0FDA3E0FEA387
:1020C600E0FF90000BEFF0122676E490009EF09071
:1020D600009EE0FFC3940974809480501774032F08
:1020E600F582E43400F583E0FF122ADB90009EE0DF
:0420F60004F080DB97
:0120FA0022C3
:10132700E490007DF0A3F0787F7C007D017BFF7A5D
:101337001A7987FE7F0312116C7F107E27122A15F8
:10134700122ACF7A197BA37D01E4FF1222AC7F100A
:101357007E27122A15122B141228097F0C122783B5
:10136700900015E060030214CA7F64FE122A15126A
:1013770028317F0C1227831228597F101227839058
:101387000015E0600302146E122ACF7A197BA37D41
:1013970001E4FF1222AC7A197BAD7D02E4FF122231
:1013A700AC7F107E27122A157F107E27122A15126E
:1013B7002ACF7A197BB67D02E4FF1222AC7F107E1A
:1013C70027122A15122B0ED2E9C2C11229709000DA
:1013D70016E0FEA3E07C002400FFEC3E90007DF0C9
:1013E700A3EFF090007DE0FAA3E0FB7D64FFAE027F
:1013F70012120CA3EFF07C007D64AF03AE02121251
:101407000CAA04AB057D0A7C00AF03AE0212120CD6
:10141700A3EFF07D0A7C00AF03AE0212120CA3ED1E
:10142700F07A197BBF7D03E4FF1222AC7F8C12296F
:10143700C490007FE02430FF1229DF7F8D1229C47A
:10144700900080E02430FF1229DF7F8E1229C4909C
:101457000081E02430FF1229DF7FD07E07122A1592
:101467007FD07E07022A15122ACF7A197BC37D0106
:10147700E4FF1222AC7A197BCF7D02E4FF1222AC83
:101487007F307E75122A15122ACF7A197BDF7D01EC
:10149700E4FF1222AC1214DA9000A4EEF0A3EFF0EE
:1014A7007FF47E01122A159000A4E0F47003A3E0F4
:1014B700F460031200069000A4E07004A3E0640F38
:1014C70070D3229000A4E07004A3E0640E700302BE
:0214D700135CA4
:0114D90022F0
:101C4C00E490007DF090001504F0122ACF7A197BF5
:101C5C00EC7D01E4FF1222AC7F887E13122A15E47E
:101C6C0090007DF090007DE0FFC394087480948018
:101C7C0050187A197BFC7D021222AC7F207E031255
:101C8C002A1590007DE004F080DA7A197BFE7D0342
:101C9C00E4FF1222AC1225717F0C122783900015E1
:101CAC00E07079122ACF7A1A7B0B7D02E4FF1222A4
:101CBC00AC7F887E13122A15122ACF7A1A7B187DD4
:101CCC00017F021222AC7A1A7B217D027F01122243
:101CDC00AC7F887E13122A157A1A7B2E7D037F0126
:101CEC001222AC7F887E13122A15E490007DF090AE
:101CFC00007DE0FFC394087480948050187A197B9F
:101D0C00FC7D041222AC7FB87E0B122A1590007D4C
:0C1D1C00E004F080DA7FE87E03122A1554
:011D28002298
:102935002020D6B8CEC6CAB6B1F0CFB5CDB30020EB
:0F29450020CAC7B7F1D1E9D6A4D6B8CEC63F0095
:0F232F00410092004100930044008E293529445B
:102A5A00C2B5D2B6D2B77580FFE580548064806073
:042A6A00F8C2B722D5
:1029C400122A5AC2B5C2B6D2B78F807F147E0012C3
:0B29D4002AF1C2B77F147E00022AF136
:1029DF00122A5AD2B5C2B6D2B78F807F147E001298
:0B29EF002AF1C2B77F147E00022AF11B
:102381007F287E00122A15D2C67F017E00122A15EF
:10239100C2C77F017E00122A15D2C77F0A7E0012B2
:1023A1002A157F301229C47F787E00122AF17F30EE
:1023B1001229C47F327E00122AF17F0C1229C47FB8
:1023C100787E00122AF17F011229C47F0A7E001251
:0E23D1002A157F061229C47F787E00022AF1A9
:1025F6009000ABEFF0ED24FE601214601714601C1F
:10260600240370229000ABE0248080169000ABE09B
:102616002490800E9000ABE0248880069000ABE00A
:102626002498FF1229C4E4FF1229DFE4FF0229DF00
:1022AC00900082EFF0A3EAF0A3EBF0ED24FE6012B5
:1022BC0014601714601C24037022900082E02480A8
:1022CC008016900082E02490800E900082E024889A
:1022DC008006900082E02498FF1229C4900083E0CD
:1022EC00FEA3E0F5828E83E493FFD3940074809474
:1022FC0080401A1229DF900084E004F070069000F0
:0E230C0083E004F07F787E00122AF180CF2259
:0C2ACF007F011229C47F147E00022A152A
:1028F400122ACF90008EE0FAA3E0FB7D01E4FF12E0
:1029040022AC900090E0FAA3E0FB7D03E4FF0222F6
:01291400AC16
:052B0900D2E8D2E92230
:032B0E00C2E822F8
:032B1100D2E822E5
:032B1400C2E922F1
:032B1700D2E922DE
:102A440043BA047584105384BF438E0475D78F75BD
:062A5400D6FD438E1022A6
:0B2ADB008F85E58430E1FB5384FD2271
:0A2AE600E58430E0FB5384FEAF8569
:012AF00022C3
:10165F002A0020202020C7EBCDA8D0D000C3DCC2A9
:10166F00EBB4EDCEF300C7EBD6D8D0C2CAE4C8EBCB
:10167F00C3DCC2EB00C7EBCAE4C8EBC3DCC2EBA30D
:10168F00BA00BDF8C8EBB9DCC0EDD4B1C4A3CABD74
:10169F0000C7EBCAE4C8EBB9DCC0EDC3DCC2EB3A60
:1016AF002000B9DCC0EDD4B1C8CFD6A4B3C9B9A658
:1016BF00002020B9DCC0EDCFB5CDB3BDE7C3E62028
:1016CF00200020202020312ED4F6CCEDC3DCC2EB3D
:1016DF00202020200020202020322EC9BEC8A5C3E4
:1016EF00DCC2EB202020200020202020332ED0DE53
:1016FF00B8C4C3DCC2EB20202020002020C7EBCCD5
:10170F00EDBCD3C3DCC2EBA3BA2020002020C3DC86
:10171F00C2EBCCEDBCD3B3C9B9A62020002020C7A3
:10172F00EBC9BEC8A5C3DCC2EBA3BA2020002020A2
:10173F00C3DCC2EBC9BEC8A5B3C9B9A6202000201F
:10174F0020B8FCB8C4C7B0C3DCC2EBA3BA202000DA
:10175F002020B8FCB8C4BAF3C3DCC2EBA3BA202074
:10176F00002020B8FCB8C4C3DCC2EBB3C9B9A620B3
:02177F00200048
:10233E0042003A0000420048000048002E0001B260
:10234E000700000000440036000000004400440076
:10235E0001E24042004A000042004E00004200509E
:02236E0000006D
:1014DA00900082E4F0A37428F074FFA3F0A3F075DF
:1014EA00F8FEE5F854FE64FE6050900082E0FEA328
:1014FA00E0FF122A15E5F854FE64FE603DE5F85453
:10150A00F02450601724E0601E24F06025247070D7
:10151A0029900084E4F0A3740AF0801E900084E409
:10152A00F0A37407F08013900084E4F0A37404F02D
:10153A008008900084E4F0A304F075F8FDE5F854FF
:10154A00FD64FD604F900082E0FEA3E0FF122A15C1
:10155A00E5F854FD64FD603CE5F854F0245060154C
:10156A0024E0601C24F0602324707028E490008436
:10157A00F0A3F0801F900084E4F0A37408F08014B4
:10158A00900084E4F0A37405F08009900084E4F0EC
:10159A00A37402F075F8FBE5F854FB64FB60519004
:1015AA000082E0FEA3E0FF122A15E5F854FB64FB73
:1015BA00603EE5F854F02450601724E0601E24F0E1
:1015CA0060252470702A900084E4F0A3740BF080E4
:1015DA001F900084E4F0A37409F08014900084E45E
:1015EA00F0A37406F08009900084E4F0A37403F079
:1015FA0075F8F7E5F854F764F76051900082E0FE59
:10160A00A3E0FF122A15E5F854F764F7603EE5F8FF
:10161A0054F02450601724E0601E24F060252470E2
:10162A00702A900084E4F0A3740FF0801F90008465
:10163A00E4F0A3740EF08014900084E4F0A3740D17
:10164A00F08009900084E4F0A3740CF0900084E028
:04165A00FEA3E0FF0C
:01165E002269
:100006009000A4E0FEA3E0FFEE60030202F8EFB466
:100016000A0040030202F8900024F828287302021E
:10002600AC0200420200830200C40201050201463E
:100036000201870201C802020902026290004AA375
:10004600E0FF7A167B5F7D021222AC7F887E131258
:100056002A1590004BE004F0700690004AE004F088
:10006600E47F0AFEFDFC900036E0F8A3E0F9A3E089
:10007600FAA3E0FB121261EF24010202A090004AEB
:10008600A3E0FF7A167B5F7D021222AC7F887E1387
:10009600122A1590004BE004F0700690004AE00426
:1000A600F0E47F0AFEFDFC900036E0F8A3E0F9A339
:1000B600E0FAA3E0FB121261EF24020202A0900014
:1000C6004AA3E0FF7A167B5F7D021222AC7F887E10
:1000D60013122A1590004BE004F0700690004AE0D7
:1000E60004F0E47F0AFEFDFC900036E0F8A3E0F998
:1000F600A3E0FAA3E0FB121261EF24030202A09030
:10010600004AA3E0FF7A167B5F7D021222AC7F884D
:100116007E13122A1590004BE004F0700690004AF8
:10012600E004F0E47F0AFEFDFC900036E0F8A3E070
:10013600F9A3E0FAA3E0FB121261EF24040202A085
:1001460090004AA3E0FF7A167B5F7D021222AC7F05
:10015600887E13122A1590004BE004F0700690007A
:100166004AE004F0E47F0AFEFDFC900036E0F8A3C6
:10017600E0F9A3E0FAA3E0FB121261EF2405020204
:10018600A090004AA3E0FF7A167B5F7D021222ACA4
:100196007F887E13122A1590004BE004F0700690BB
:1001A600004AE004F0E47F0AFEFDFC900036E0F829
:1001B600A3E0F9A3E0FAA3E0FB121261EF24060222
:1001C60002A090004AA3E0FF7A167B5F7D0212220E
:1001D600AC7F887E13122A1590004BE004F070065F
:1001E60090004AE004F0E47F0AFEFDFC900036E051
:1001F600F8A3E0F9A3E0FAA3E0FB121261EF2407EB
:100206000202A090004AA3E0FF7A167B5F7D0212ED
:1002160022AC7F887E13122A1590004BE004F07002
:100226000690004AE004F0C2CD7F327E00122A1505
:10023600D2CDE47F0AFEFDFC900036E0F8A3E0F99B
:10024600A3E0FAA3E0FB121261EF2406FFE43EFEF0
:10025600E43DFDE43CFC9000361212EA90004AA30D
:10026600E0FF7A167B5F7D021222AC7F887E131236
:100276002A1590004BE004F0700690004AE004F066
:10028600E47F0AFEFDFC900036E0F8A3E0F9A3E067
:10029600FAA3E0FB121261EF2409FFE43EFEE43DFF
:1002A600FDE43CFC804690004AA3E0FF7A167B5FA3
:1002B6007D021222AC7F887E13122A1590004BE035
:1002C60004F0700690004AE004F0C2CD7F327E0052
:1002D600122A15D2CD900036E0FCA3E0FDA3E0FE85
:1002E600A3E0FFE47B0AFAF9F812126190003612D5
:1002F60012EAD390004BE0940590004AE094005037
:10030600030203EBE4F0A3F090002CF0A37402F0D8
:10031600E490004CF0A3F090002CE0FEA3E0FF90E8
:10032600004CE0FCA3E0FDC39FEE6480F8EC648023
:10033600985066AE04ED7802C333CE33CED8F92496
:100346002EF58274003EF583E0FCA3E0FDA3E0FEFB
:10035600A3E0FF900036E0F8A3E0F9A3E0FAA3E0FB
:10036600FBC31212C67021D2C1122ACF7A167B6144
:100376007D02E4FF1222AC122970D2E9C2E8C2C1A2
:1003860090004EE4F0A304F090004DE004F0708776
:1003960090004CE004F002031D90004EE07002A3B2
:1003A600E07038122ACF7A167B6C7D01E4FF1222A8
:1003B600AC1229A87FE87E03122A157A167B757D72
:1003C60002E4FF1222AC7F307E75122A15122ACF64
:1003D6007A167B847D01E4FF1222AC90003612125D
:0603E600F60000000022F9
:1007C3009000A4E0FEA3E0FFEE6003020AB5EFB4DD
:1007D3000A004003020AB59007E1F8282873020AC9
:1007E300690207FF0208400208810208C2020903E6
:1007F3000209440209850209C6020A1F90004AA39E
:10080300E0FF7A167B5F7D031222AC7F887E131292
:100813002A1590004BE004F0700690004AE004F0C3
:10082300E47F0AFEFDFC900036E0F8A3E0F9A3E0C4
:10083300FAA3E0FB121261EF2401020A5D90004A61
:10084300A3E0FF7A167B5F7D031222AC7F887E13C1
:10085300122A1590004BE004F0700690004AE00461
:10086300F0E47F0AFEFDFC900036E0F8A3E0F9A374
:10087300E0FAA3E0FB121261EF2402020A5D90008A
:100883004AA3E0FF7A167B5F7D031222AC7F887E4A
:1008930013122A1590004BE004F0700690004AE012
:1008A30004F0E47F0AFEFDFC900036E0F8A3E0F9D3
:1008B300A3E0FAA3E0FB121261EF2403020A5D90A6
:1008C300004AA3E0FF7A167B5F7D031222AC7F8888
:1008D3007E13122A1590004BE004F0700690004A34
:1008E300E004F0E47F0AFEFDFC900036E0F8A3E0AC
:1008F300F9A3E0FAA3E0FB121261EF2404020A5DFC
:1009030090004AA3E0FF7A167B5F7D031222AC7F3F
:10091300887E13122A1590004BE004F070069000B5
:100923004AE004F0E47F0AFEFDFC900036E0F8A301
:10093300E0F9A3E0FAA3E0FB121261EF2405020A37
:100943005D90004AA3E0FF7A167B5F7D031222AC21
:100953007F887E13122A1590004BE004F0700690F6
:10096300004AE004F0E47F0AFEFDFC900036E0F864
:10097300A3E0F9A3E0FAA3E0FB121261EF2406025D
:100983000A5D90004AA3E0FF7A167B5F7D03122283
:10099300AC7F887E13122A1590004BE004F070069A
:1009A30090004AE004F0E47F0AFEFDFC900036E08C
:1009B300F8A3E0F9A3E0FAA3E0FB121261EF240726
:1009C300020A5D90004AA3E0FF7A167B5F7D031263
:1009D30022AC7F887E13122A1590004BE004F0703E
:1009E3000690004AE004F0C2CD7F327E00122A1541
:1009F300D2CDE47F0AFEFDFC900036E0F8A3E0F9D7
:100A0300A3E0FAA3E0FB121261EF2406FFE43EFE2B
:100A1300E43DFDE43CFC9000361212EA90004AA348
:100A2300E0FF7A167B5F7D031222AC7F887E131270
:100A33002A1590004BE004F0700690004AE004F0A1
:100A4300E47F0AFEFDFC900036E0F8A3E0F9A3E0A2
:100A5300FAA3E0FB121261EF2409FFE43EFEE43D3A
:100A6300FDE43CFC804690004AA3E0FF7A167B5FDE
:100A73007D031222AC7F887E13122A1590004BE06F
:100A830004F0700690004AE004F0C2CD7F327E008D
:100A9300122A15D2CD900036E0FCA3E0FDA3E0FEC0
:100AA300A3E0FFE47B0AFAF9F81212619000361210
:030AB30012EA2222
:100AB6009000A4E0FEA3E0FFEE6003020DA8EFB4F1
:100AC6000A004003020DA8900AD4F8282873020DE4
:100AD6005C020AF2020B33020B74020BB5020BF630
:100AE600020C37020C78020CB9020D1290004AA3D0
:100AF600E0FF7A167B5F7D021222AC7F887E13129E
:100B06002A1590004BE004F0700690004AE004F0CD
:100B1600E47F0AFEFDFC90003CE0F8A3E0F9A3E0C8
:100B2600FAA3E0FB121261EF2401020D5090004A75
:100B3600A3E0FF7A167B5F7D021222AC7F887E13CC
:100B4600122A1590004BE004F0700690004AE0046B
:100B5600F0E47F0AFEFDFC90003CE0F8A3E0F9A378
:100B6600E0FAA3E0FB121261EF2402020D5090009E
:100B76004AA3E0FF7A167B5F7D021222AC7F887E55
:100B860013122A1590004BE004F0700690004AE01C
:100B960004F0E47F0AFEFDFC90003CE0F8A3E0F9D7
:100BA600A3E0FAA3E0FB121261EF2403020D5090BA
:100BB600004AA3E0FF7A167B5F7D021222AC7F8893
:100BC6007E13122A1590004BE004F0700690004A3E
:100BD600E004F0E47F0AFEFDFC90003CE0F8A3E0B0
:100BE600F9A3E0FAA3E0FB121261EF2404020D5010
:100BF60090004AA3E0FF7A167B5F7D021222AC7F4B
:100C0600887E13122A1590004BE004F070069000BF
:100C16004AE004F0E47F0AFEFDFC90003CE0F8A305
:100C2600E0F9A3E0FAA3E0FB121261EF2405020D3E
:100C36005090004AA3E0FF7A167B5F7D021222AC39
:100C46007F887E13122A1590004BE004F070069000
:100C5600004AE004F0E47F0AFEFDFC90003CE0F868
:100C6600A3E0F9A3E0FAA3E0FB121261EF24060267
:100C76000D5090004AA3E0FF7A167B5F7D02122298
:100C8600AC7F887E13122A1590004BE004F07006A4
:100C960090004AE004F0E47F0AFEFDFC90003CE090
:100CA600F8A3E0F9A3E0FAA3E0FB121261EF240730
:100CB600020D5090004AA3E0FF7A167B5F7D021278
:100CC60022AC7F887E13122A1590004BE004F07048
:100CD6000690004AE004F0C2CD7F327E00122A154B
:100CE600D2CDE47F0AFEFDFC90003CE0F8A3E0F9DB
:100CF600A3E0FAA3E0FB121261EF2406FFE43EFE36
:100D0600E43DFDE43CFC90003C1212EA90004AA34C
:100D1600E0FF7A167B5F7D021222AC7F887E13127B
:100D26002A1590004BE004F0700690004AE004F0AB
:100D3600E47F0AFEFDFC90003CE0F8A3E0F9A3E0A6
:100D4600FAA3E0FB121261EF2409FFE43EFEE43D44
:100D5600FDE43CFC804690004AA3E0FF7A167B5FE8
:100D66007D021222AC7F887E13122A1590004BE07A
:100D760004F0700690004AE004F0C2CD7F327E0097
:100D8600122A15D2CD90003CE0FCA3E0FDA3E0FEC4
:100D9600A3E0FFE47B0AFAF9F812126190003C1214
:030DA60012EA222C
:100DA9009000A4E0FEA3E0FFEE600302109BEFB405
:100DB9000A00400302109B900DC7F82828730210FF
:100DC9004F020DE5020E26020E67020EA8020EE979
:100DD900020F2A020F6B020FAC02100590004AA302
:100DE900E0FF7A167B5F7D021222AC7F887E1312A8
:100DF9002A1590004BE004F0700690004AE004F0D8
:100E0900E47F0AFEFDFC900040E0F8A3E0F9A3E0CE
:100E1900FAA3E0FB121261EF240102104390004A89
:100E2900A3E0FF7A167B5F7D021222AC7F887E13D6
:100E3900122A1590004BE004F0700690004AE00475
:100E4900F0E47F0AFEFDFC900040E0F8A3E0F9A37E
:100E5900E0FAA3E0FB121261EF24020210439000B2
:100E69004AA3E0FF7A167B5F7D021222AC7F887E5F
:100E790013122A1590004BE004F0700690004AE026
:100E890004F0E47F0AFEFDFC900040E0F8A3E0F9DD
:100E9900A3E0FAA3E0FB121261EF240302104390CE
:100EA900004AA3E0FF7A167B5F7D021222AC7F889D
:100EB9007E13122A1590004BE004F0700690004A48
:100EC900E004F0E47F0AFEFDFC900040E0F8A3E0B6
:100ED900F9A3E0FAA3E0FB121261EF240402104324
:100EE90090004AA3E0FF7A167B5F7D021222AC7F55
:100EF900887E13122A1590004BE004F070069000CA
:100F09004AE004F0E47F0AFEFDFC900040E0F8A30B
:100F1900E0F9A3E0FAA3E0FB121261EF2405021045
:100F29004390004AA3E0FF7A167B5F7D021222AC50
:100F39007F887E13122A1590004BE004F07006900A
:100F4900004AE004F0E47F0AFEFDFC900040E0F86E
:100F5900A3E0F9A3E0FAA3E0FB121261EF24060271
:100F6900104390004AA3E0FF7A167B5F7D021222AC
:100F7900AC7F887E13122A1590004BE004F07006AE
:100F890090004AE004F0E47F0AFEFDFC900040E096
:100F9900F8A3E0F9A3E0FAA3E0FB121261EF24073A
:100FA90002104390004AA3E0FF7A167B5F7D02128C
:100FB90022AC7F887E13122A1590004BE004F07052
:100FC9000690004AE004F0C2CD7F327E00122A1555
:100FD900D2CDE47F0AFEFDFC900040E0F8A3E0F9E1
:100FE900A3E0FAA3E0FB121261EF2406FFE43EFE40
:100FF900E43DFDE43CFC9000401212EA90004AA353
:10100900E0FF7A167B5F7D021222AC7F887E131285
:101019002A1590004BE004F0700690004AE004F0B5
:10102900E47F0AFEFDFC900040E0F8A3E0F9A3E0AC
:10103900FAA3E0FB121261EF2409FFE43EFEE43D4E
:10104900FDE43CFC804690004AA3E0FF7A167B5FF2
:101059007D021222AC7F887E13122A1590004BE084
:1010690004F0700690004AE004F0C2CD7F327E00A1
:10107900122A15D2CD900040E0FCA3E0FDA3E0FECA
:10108900A3E0FFE47B0AFAF9F8121261900040121A
:0310990012EA2236
:1003EC00122ACF7A167B917D01E4FF1222AC7A1689
:1003FC007BA07D02E4FF1222AC1214DA9000A4EE72
:10040C00F0A3EFF07FF47E01122A151207C3D390EC
:10041C00004BE0940590004AE0940040DCE4F0A32B
:10042C00F0900044E0FCA3E0FDA3E0FEA3E0FF900D
:10043C000036E0F8A3E0F9A3E0FAA3E0FB1212C641
:10044C007017122ACF7A167BB17D02E4FF1222AC10
:10045C007FE87E03122A158042122ACF7A167B6C13
:10046C007D01E4FF1222AC7FE87E03122A157A1676
:10047C007B757D02E4FF1222AC7F307E75122A154B
:10048C00122ACF7A167B847D01E4FF1222AC9000F5
:10049C00361212F60000000002040590002CE4F065
:1004AC00A37402F0122ACF7A167BC07D01E4FF12EE
:1004BC0022AC7A167BD17D02E4FF1222AC7A167B39
:1004CC00E47D03E4FF1222AC7A167BF77D04E4FF93
:1004DC001222AC1214DA9000A4EEF0A3EFF0EE604E
:1004EC00030207B3EF24F3700302059D147003029B
:1004FC00067F240260030207B3900050E4F0A304CB
:10050C00F074FF9000A4F0A3F0122ACF7A177B0AA4
:10051C007D01E4FF1222AC1214DA9000A4EEF0A3D9
:10052C00EFF07FF47E01122A15120AB6D390004B1D
:10053C00E0940590004AE094004006E4F0A3F080BB
:10054C000C9000A4E07004A3E0640F70CA90003C0F
:10055C00E0FCA3E0FDA3E0FEA3E0FFC004C005C0E7
:10056C0006C00790002CE0FEA3E07802C333CE3324
:10057C00CED8F9242EF58274003EF583D007D00630
:10058C00D005D0041212EA122ACF7A177B1B02066E
:10059C006E74FF9000A4F0A3F0900050E4F0A3045C
:1005AC00F0122ACF7A177B2C7D01E4FF1222AC12B9
:1005BC0014DA9000A4EEF0A3EFF07FF47E01122A7F
:1005CC0015120AB6D390004BE0940590004AE094C3
:1005DC000040DCE4F0A3F0A3F0A3F090002CE0FECC
:1005EC00A3E0FF90004CE0FCA3E0FDC39FEE648011
:1005FC00F8EC6480985064AE04ED7802C333CE33CB
:10060C00CED8F9242EF58274003EF583E0FCA3E0ED
:10061C00FDA3E0FEA3E0FF90003CE0F8A3E0F9A30B
:10062C00E0FAA3E0FBC31212C6702090004CE0FE6F
:10063C00A3E07802C333CE33CED8F9242EF58274DE
:10064C00003EF5831212F60000000090004DE0040D
:10065C00F0708890004CE004F08080122ACF7A175A
:10066C007B3D7D01E4FF1222AC7FD07E07122A1560
:10067C000207B3900050E4F0A304F074FF9000A4C0
:10068C00F0A3F0122ACF7A177B4E7D01E4FF1222E1
:10069C00AC1214DA9000A4EEF0A3EFF07FF47E011C
:1006AC00122A15120AB6D390004BE0940590004A1A
:1006BC00E0940040DCE4F0A3F0122ACF7A177B5FC1
:1006CC007D01E4FF1222AC74FF9000A4F0A3F012A1
:1006DC0014DA9000A4EEF0A3EFF07FF47E01122A5E
:1006EC0015120DA9D390004BE0940590004AE094AC
:1006FC000040DCE4F0A3F0A3F0A3F090002CE0FEAB
:10070C00A3E0FF90004CE0FCA3E0FDC39FEE6480EF
:10071C00F8EC64809840030207A5AE04ED7802C3A0
:10072C0033CE33CED8F9242EF58274003EF583E017
:10073C00FCA3E0FDA3E0FEA3E0FF90003CE0F8A3E7
:10074C00E0F9A3E0FAA3E0FBC31212C6703A9000E2
:10075C0040E0FCA3E0FDA3E0FEA3E0FFC004C00565
:10076C00C006C00790004CE0FEA3E07802C333CE75
:10077C0033CED8F9242EF58274003EF583D007D001
:10078C0006D005D0041212EA90004DE004F0700679
:10079C0090004CE004F0020707122ACF7A177B7006
:1007AC007D01E4FF1222AC900050E07004A3E064E1
:0707BC000160030204DF22CB
:0727B100E0FF1227B8E4FF6E
:1027B800E4FEEEC39408748094805015EF30E7046B
:1027C800D2968002C296D2CCEF25E0FFC2CC0E8012
:0527D800E1D296C2CC25
:0127DD0022D9
:0728A900C2977F051227B85A
:1028B000E4FEEEC39408748094805011C2CCEF25DE
:0F28C000E0FF30CD034401FFD2CC0E80E5C2CC47
:0128CF0022E6
:1027DE00E4FEEEC3940474809480501AEF25E02535
:1027EE00E0FFC2CC30CD034402FF309604EF44012B
:0A27FE00FFD2CC0E80DCD296C2CCD4
:0128080022AD
:052B03001228A9D29781
:012B080022AA
:0C2AB500C2977F351227B81228B0D297C4
:012AC10022F2
:0C2AC200C2977F151227B81228B0D297D7
:012ACE0022E5
:102721007591C07592C075C93075CA30D297D2966D
:10273100C2CCE4FFFEE4FDFC0DBD00010CED64C85C
:102741004C70F50FBF00010EEF64C84E70E7022711
:012751005235
:10275200C2977F661227B8D297E4FFEFC3946474DE
:1027620080948050030F80F3C2977F991227B8D2CA
:1027720097E4FFEFC394F07480948050030F80F3CA
:012782002234
:0E1E0300900065EBF0A3EAF0A3E9F0A3EDF088
:101E110090006B7401F0E4A3F090006BE06401703A
:101E2100131228A912295490006CE004F0E0648098
:101E310070E7FF2290006D7403F0900068E090005D
:101E41006EF0900069E090006FF0E4A3F0C297900B
:101E5100006BF090006BE0FFC39404748094805099
:101E610017746D2FF582E43400F583E0FF1227B873
:101E710090006BE004F080DBE490006BF090006A6E
:101E8100E0FFA3E0C39F50231228B0900065E0FB60
:101E9100A3E0FAA3E0F990006BE0F582758300EF0F
:101EA1001211EA90006BE004F080D21228B0900089
:101EB10065E0FBA3E0FAA3E0F990006AE0F5827522
:0A1EC1008300EF1211EAD2977F01AF
:011ECB0022F4
:0E1D2900900071EBF0A3EAF0A3E9F0A3EDF057
:101D37009000777401F0E4A3F0900077E0640170FD
:101D4700131228A9122954900078E004F0E0648067
:101D570070E7FF22900079743BF0900074E09000E8
:101D67007AF0900075E090007BF0E4A3F0C29790C2
:101D77000077F0900077E0FFC3940474809480505C
:101D87001774792FF582E43400F583E0FF1227B842
:101D9700900077E004F080DB7591C0759280E4FFD6
:101DA7001227B8E4900077F0900076E0FFA3E0C335
:101DB7009F50231227DE900071E0FBA3E0FAA3E017
:101DC700F9900077E0F582758300EF1211EA900031
:101DD70077E004F080D21227DE900071E0FBA3E0E9
:101DE700FAA3E0F9900076E0F582758300EF12110F
:0B1DF700EA7591C07592C0D2977F0181
:011E020022BD
:051ECC009000A6EFF0FC
:101ED1007F01E4A3F0EF6401701B7F0112295D1201
:101EE10028A9D297EF5401FF9000A7E004F0E06425
:101EF1008070E2FF22C2977F061227B8D297E4FFD3
:101F01009000A7F0EF6402601B7F0112295D122887
:101F1100A9D297EF5402FF9000A7E004F0E064FE1D
:101F210070E2FF22C2977FD81227B89000A612272D
:101F3100B1E4FF1227B8D2977F01E4A3F0EF640167
:101F4100701B7F0112295D1228A9D297EF5401FF5E
:101F51009000A7E004F0E064FE70E2FF227F02E45B
:101F61009000A7F0EF6402701B7F0112295D122817
:101F7100A9D297EF5402FF9000A7E004F0E064FEBD
:061F810070E2FF227F0167
:011F87002237
:0E189400900087EBF0A3EAF0A3E9F0A3EDF0DB
:1018A2007D01E490008DF0ED6401701D7F0112292D
:1018B2005D1228A9AD07D297ED5401FD90008DE08D
:1018C20004F0E0648070E0FF22C2977F061227B81E
:1018D200D297E4FD90008DF0ED6402601D7F01124D
:1018E200295D1228A9AD07D297ED5402FD90008D13
:1018F200E004F0E064FE70E0FF22C2977F0212274C
:10190200B890008AE0FF1227B8A31227B1E4FD9035
:10191200008CE0FCEDC39C501A900087E0FBA3E032
:10192200FAA3E0F98D827583001211ABFF1227B87A
:101932000D80DC900087E0FBA3E0FAA3E0F98C8243
:101942007583001211ABFF1227B8D2977D01E49084
:10195200008DF0ED6401701D7F0112295D1228A92E
:10196200AD07D297ED5401FD90008DE004F0E064E4
:10197200FE70E0FF227D02E490008DF0ED640270C3
:101982001D7F0112295D1228A9AD07D297ED5402DD
:10199200FD90008DE004F0E064FE70E0FF227F0124
:0119A2002222
:09295400EFF0D2975401F07F016D
:10295D00E4FEEEC39F500B7D1D7CB7DCFEDDFC0E4F
:02296D0080F0F8
:01296F002245
:102A9500AA07020001B4AA07020002B5AA070200AC
:022AA50003B676
:10291500E4FDFCE4FAFBC3EB9FEA9E50070BBB000A
:0F292500010A80F20DBD00010CBC01E7BDF4E416
:012934002280
:10297000E4FFEFC3940674809480500FEF902A9583
:0B29800093F5993099FDC2990F80E794
:01298B002229
:10298C00E4FFEFC3940674809480500FEF902A9B61
:0B299C0093F5993099FDC2990F80E778
:0129A700220D
:1029A800E4FFEFC3940674809480500FEF902AA13F
:0B29B80093F5993099FDC2990F80E75C
:0129C30022F1
:102A6E00759850E4F589758E40758B8E758DFDD2F7
:042A7E008ED2AF2223
:101A8A003A04401012141716180419021A7A3280EE
:101A9A00030A0C0C15003E007000710172117309E3
:101AAA00A20211007A207B1C7C287D3C7E557F682F
:101ABA00807681808288838F849685A386AF87C447
:101ACA0088D789E813E0000010000D001420A5054E
:101ADA00AB072475256326A59F78A068A103A6DF16
:101AEA00A7DFA8F0A990AA9413E50E610F4B16027E
:101AFA001E17210222912907330B350B371D387126
:101B0A00392A3C784D404E20695D6B4074198D4FDF
:101B1A008E008F0090009100920096009A80B08407
:101B2A00B10CB20EB382B80A431444F04534465895
:101B3A004728483A59885A885B445C675D495E0E73
:101B4A00640465206605940495086C0A6D554F80F7
:101B5A00508051005222535E54806E116F9F55007F
:041B6A00564057800A
:042370004100AC007C
:1026B000900080EFF0A3EDF0122A2D7F4212252B1F
:1026C000EF70028018900080E0FF12252BEF70025F
:1026D000800B900081E0FF12252BEF70061229FA83
:0926E0007F00221229FA7F012279
:0623DF007B017A00796425
:1023E500900080EFF0A3EBF0A3EAF0A3E9F0122A46
:1023F5002D7F4212252BEF7002801B900080E0FF9D
:1024050012252BEF7002800E1229FA122A2D7F4316
:1024150012252BEF70061229FA7F002212243C9018
:102425000081E0FBA3E0FAA3E0F9EF1211D812282E
:07243500D01229FA7F0122F9
:10222300E490007DF07D807F121226B0EF70037F73
:1022330001227B017A00797E7F0B1223E5EF700385
:102243007F01227B017A00797F7F0A1223E5EF70F9
:10225300037F012290007EE06473704AA3E06476FA
:10226300704490007DF090007DE0C394727480947C
:10227300805030E0FE25E0248AF582E4341AF583A9
:10228300E493FFEE25E0248BF582E4341AF583E42E
:1022930093FD1226B0EF70037F012290007DE004CE
:0822A300F080C37F00227F01DF
:0122AB002210
:0E178100900058EEF0A3EFF0A3ECF0A3EDF013
:10178F00EB25E0FFEA33FE900059E02FFF90005861
:10179F00E03E900060F0A3EFF090005FE025E0FFE7
:1017AF0090005EE033FE90005BE02FFF90005AE068
:1017BF003EFE900062F0A3EFF0D39410EE9403403E
:1017CF000BE024F0F0900062E034FCF07F03122372
:1017DF00DF900064E054F0F0E0FF900060A3E0546D
:1017EF000325E025E0FE900058A3E054034EFEEFE2
:1017FF004E900064F0E0FD7F031226B0900058E099
:10180F00FEA3E07802CEC313CE13D8F9FD7F1912D1
:10181F0026B0900060E0FEA3E07802CEC313CE1393
:10182F00D8F9FD7F1A1226B07F321223DF900064A1
:10183F00E054C0F0E0FF900062A3E054073333336D
:10184F0054F8FE90005AA3E054074EFEEF4E90005E
:10185F0064F0E0FD7F321226B090005AE0FEA3E064
:10186F007803CEC313CE13D8F9FD7F171226B0908D
:10187F000062E0FEA3E07803CEC313CE13D8F9FDC8
:05188F007F180226B0E5
:101F8800E49000A3F0D288D2A8D2AF122223EF6047
:101F9800117F207E03122A15C2A8C2AF9000A37435
:101FA80001F09000A3E0640170037F0122C2EF906A
:101FB800005E7401F0A37440F07BF07A007DB07C81
:101FC800007F0A7E001217819000ACE0640270F86E
:101FD800C2EEC2B4D2B4C2B4D2EED2B490009F1250
:101FE80012F6000000007F007E2C7D017C0090002E
:101FF8009FE0F8A3E0F9A3E0FAA3E0FBC31212C63E
:10200800502FC2B485909BD2B4C2B485909BD2B4F1
:1020180090009FE0FCA3E0FDA3E0FEA3E02401FF05
:10202800E43EFEE43DFDE43CFC90009F1212EA8091
:0A203800B5D2A8E49000ACF0808E51
:030003000225B51E
:1025B500C0E0C083C082C0D075D000C006C00790FF
:1025C50000ACE0FF7E00700AC2EDD2EDD2B304F09C
:1025D5008012EF64014E700CC2B3C2EDD2ED9000D3
:1025E500AC7402F0D007D006D0D0D082D083D0E032
:0125F50032B3
:102A2D00D2A0D2A17FAF7E00122AF1C2A07FAF7ECD
:072A3D0000122AF1C2A122E0
:1029FA00C2A07FAF7E00122AF1D2A17FAF7E001261
:0B2A0A002AF1D2A07FAF7E00022AF16B
:1028D0007F0A7E00122AF1D2A0D2A17FAF7E001221
:1028E0002AF1C2A17FAF7E00122AF1C2A07FAF7E83
:0428F00000022AF1C7
:1026E900D2A07FAF7E00122AF1D2A17FAF7E001265
:1026F9002AF1A2A0E433900086F07FAF7E00122A6F
:10270900F1C2A17FAF7E00122AF1C2A0900086E03B
:0727190070037F01227F0025
:012720002296
:05252B00900084EFF0B8
:10253000E4A3F0900085E0FFC39408748094805079
:102540002B900084E0FEA807088002C333D8FC3338
:1025500092A07FAF7E00122AF1D2A17FAF7E00123F
:102560002AF1C2A1900085E004F080C7C2A0022633
:01257000E981
:10243C00E4900085F0D2A0900084F0900084E0C37A
:10244C00940874809480503D7FAF7E00122AF1D2A4
:10245C00A130A019900085E0FF900084E0FEF87494
:10246C0080088002C313D8FC4F900085F07FAF7EAC
:10247C0000122AF1C2A17FAF7E00122AF1900084D3
:0C248C00E004F080B6C2A0900085E0FFE4
:012498002221
:1026360041542B43574D4F44453D320D0A004154FA
:102646002B4349504D55583D310D0A0041542B43FB
:1026560049505345525645523D312C3333330D0ABA
:102666000041542B43495053544F3D35300D0A0019
:0C2374004400940A0B0000420098000096
:082AFB008F993099FDC2992268
:102A8200121192FF600C122AFB740129F9E43AFA3E
:032A920080EE22B1
:101B6E0075BA01759A50438E0475D78F75D6FD439D
:101B7E008E1075AF01D2AFE490007DF0A3F090000F
:101B8E007DE0FEA3E0FFE4FCFD7B507AC3F9F8D3C1
:101B9E001212B0401090007EE004F070E190007DD3
:101BAE00E004F080D97BFF7A267936122A82E490FF
:101BBE00007DF0A3F090007DE0FEA3E0FFE4FCFDCD
:101BCE007B507AC3F9F8D31212B0401090007EE029
:101BDE0004F070E190007DE004F080D97BFF7A265E
:101BEE007944122A82E490007DF0A3F090007EE00A
:101BFE0004F0700690007DE004F090007DE0B44E9D
:101C0E00EBA3E0B420E67BFF7A267952122A82E417
:101C1E0090007DF0A3F090007EE004F0700690003E
:101C2E007DE004F090007DE0B44EEBA3E0B420E63E
:0D1C3E007BFF7A267967122A82C298D2AC09
:011C4B002276
:1021A3000220FBE493A3F8E493A34003F68001F237
:1021B30008DFF48029E493A3F85407240CC8C3333D
:1021C300C4540F4420C8834004F456800146F6DF0C
:1021D300E4800B010204081020408090231AE47E5F
:1021E300019360BCA3FF543F30E509541FFEE49301
:1021F300A360010ECF54C025E060A840B8E493A3C8
:10220300FAE493A3F8E493A3C8C582C8CAC583CAF2
:10221300F0A3C8C582C8CAC583CADFE9DEE780BEAA
:01238000005C
:10109C00E709F608DFFA8046E709F208DFFA803E36
:1010AC0088828C83E709F0A3DFFA8032E309F60823
:1010BC00DFFA8078E309F208DFFA807088828C838B
:1010CC00E309F0A3DFFA806489828A83E0A3F6083F
:1010DC00DFFA805889828A83E0A3F208DFFA804C19
:1010EC0080D280FA80C680D4806980F280338010F0
:1010FC0080A680EA809A80A880DA80E280CA803359
:10110C0089828A83ECFAE493A3C8C582C8CCC583D0
:10111C00CCF0A3C8C582C8CCC583CCDFE9DEE780A0
:10112C000D89828A83E493A3F608DFF9ECFAA9F01F
:10113C00EDFB2289828A83ECFAE0A3C8C582C8CC75
:10114C00C583CCF0A3C8C582C8CCC583CCDFEADE8E
:10115C00E880DB89828A83E493A3F208DFF980CCF0
:10116C0088F0EF60010E4E60C388F0ED2402B404E9
:10117C000050B9F582EB2402B4040050AF23234590
:06118C0082239010EC73B9
:10119200BB010689828A83E0225002E722BBFE025B
:0911A200E32289828A83E493228E
:1011AB00BB010CE58229F582E5833AF583E02250F9
:1011BB0006E92582F8E622BBFE06E92582F8E22243
:0D11CB00E58229F582E5833AF583E493225D
:1011D800BB010689828A83F0225002F722BBFE01F6
:0211E800F322F0
:1011EA00F8BB010DE58229F582E5833AF583E8F03B
:1011FA00225006E92582C8F622BBFE05E92582C8E7
:02120A00F222CE
:10120C00BC000BBE0029EF8DF084FFADF022E4CCC6
:10121C00F875F008EF2FFFEE33FEEC33FCEE9DEC8F
:10122C00984005FCEE9DFE0FD5F0E9E4CEFD22EDD5
:10123C00F8F5F0EE8420D21CFEADF075F008EF2F1F
:10124C00FFED33FD4007985006D5F0F222C398FD10
:05125C000FD5F0EA22AD
:10126100E88FF0A4CC8BF0A42CFCE98EF0A42CFC2C
:101271008AF0EDA42CFCEA8EF0A4CDA8F08BF0A4AA
:101281002DCC3825F0FDE98FF0A42CCD35F0FCEB09
:101291008EF0A4FEA9F0EB8FF0A4CFC5F02ECD39CE
:0F12A100FEE43CFCEAA42DCE35F0FDE43CFC223B
:1012B000EB9FF5F0EA9E42F0E99D42F0EC6480C8B5
:0612C00064809845F02255
:1012C600EB9FF5F0EA9E42F0E99D42F0E89C45F07E
:0112D60022F5
:1012D700E8600FECC313FCED13FDEE13FEEF13FFF5
:0312E700D8F12219
:0C12EA00ECF0A3EDF0A3EEF0A3EFF02277
:1012F600A8828583F0D083D08212130D12130D12AB
:10130600130D12130DE473E493A3C583C5F0C583CF
:10131600C8C582C8F0A3C583C5F0C583C8C582C841
:0113260022A4
:00000001FF
